:1008540012089D7F781208001208797F3912080067
:100864001208797F381208001208797F3F120800B5
:0508740012087980DE8E
:10080000EF30E00543A004800353A0FBEF30E10587
:1008100043A002800353A0FDEF30E20543A0018016
:100820000353A0FEEF30E305438080800353807FB5
:10083000EF30E40543801080035380EFEF30E5058F
:1008400043802080035380DFEF30E6044380402262
:040850005380BF22F0
:0F089D00E4F5807590FFF5A043B07F53B07F2244
:040879007FD07E07A7
:10087D00E4FDFCC3ED9FEC9E5015E4FBFA0BBB00B1
:0F088D00010AEB64784A70F50DBD00010C80E4A0
:01089C002239
:030000000208AC47
:0C08AC00787FE4F6D8FD7581070208543F
:00000001FF
